{
  "contractName": "Cardgenerator",
  "abi": [
    {
      "constant": true,
      "inputs": [
        {
          "name": "",
          "type": "address"
        }
      ],
      "name": "ownerCardCount",
      "outputs": [
        {
          "name": "",
          "type": "uint256"
        }
      ],
      "payable": false,
      "stateMutability": "view",
      "type": "function"
    },
    {
      "constant": true,
      "inputs": [
        {
          "name": "",
          "type": "uint256"
        }
      ],
      "name": "cards",
      "outputs": [
        {
          "name": "dna",
          "type": "uint256"
        }
      ],
      "payable": false,
      "stateMutability": "view",
      "type": "function"
    },
    {
      "constant": true,
      "inputs": [],
      "name": "globalCardCount",
      "outputs": [
        {
          "name": "",
          "type": "uint256"
        }
      ],
      "payable": false,
      "stateMutability": "view",
      "type": "function"
    },
    {
      "constant": true,
      "inputs": [
        {
          "name": "",
          "type": "uint256"
        }
      ],
      "name": "cardToOwner",
      "outputs": [
        {
          "name": "",
          "type": "address"
        }
      ],
      "payable": false,
      "stateMutability": "view",
      "type": "function"
    },
    {
      "anonymous": false,
      "inputs": [
        {
          "indexed": false,
          "name": "cardId",
          "type": "uint256"
        },
        {
          "indexed": false,
          "name": "dna",
          "type": "uint256"
        }
      ],
      "name": "NewCard",
      "type": "event"
    },
    {
      "constant": false,
      "inputs": [],
      "name": "createRandomCard",
      "outputs": [],
      "payable": false,
      "stateMutability": "nonpayable",
      "type": "function"
    }
  ],
  "bytecode": "0x60606040526010600055600054600a0a600155600a60025560056003556003600455341561002c57600080fd5b6104a28061003b6000396000f30060606040526004361061006d576000357c0100000000000000000000000000000000000000000000000000000000900463ffffffff168063804c4b25146100725780638dc10768146100bf578063b120e01f146100f6578063fb3f77661461011f578063ffb976ec14610134575b600080fd5b341561007d57600080fd5b6100a9600480803573ffffffffffffffffffffffffffffffffffffffff16906020019091905050610197565b6040518082815260200191505060405180910390f35b34156100ca57600080fd5b6100e060048080359060200190919050506101af565b6040518082815260200191505060405180910390f35b341561010157600080fd5b6101096101d9565b6040518082815260200191505060405180910390f35b341561012a57600080fd5b6101326101df565b005b341561013f57600080fd5b6101556004808035906020019091905050610273565b604051808273ffffffffffffffffffffffffffffffffffffffff1673ffffffffffffffffffffffffffffffffffffffff16815260200191505060405180910390f35b60086020528060005260406000206000915090505481565b6006818154811015156101be57fe5b90600052602060002090016000915090508060000154905081565b60055481565b600080600080600860003373ffffffffffffffffffffffffffffffffffffffff1673ffffffffffffffffffffffffffffffffffffffff1681526020019081526020016000205414151561023157600080fd5b60019250600091505b60025482101561026e5761024e42846102a6565b9050610259816102e4565b8280600101935050818060010192505061023a565b505050565b60076020528060005260406000206000915054906101000a900473ffffffffffffffffffffffffffffffffffffffff1681565b6000806000838502915081604051808281526020019150506040518091039020600190049050600154818115156102d957fe5b069250505092915050565b60006001600680548060010182816102fc9190610423565b91600052602060002090016000602060405190810160405280878152509091909150600082015181600001555050039050336007600083815260200190815260200160002060006101000a81548173ffffffffffffffffffffffffffffffffffffffff021916908373ffffffffffffffffffffffffffffffffffffffff160217905550600860003373ffffffffffffffffffffffffffffffffffffffff1673ffffffffffffffffffffffffffffffffffffffff168152602001908152602001600020600081548092919060010191905055507fcf8e4e7c2fdf9e4b6dd5b064faecd0635e5c3c579db2d4addecaefa6eb59a7dd8183604051808381526020018281526020019250505060405180910390a16005600081548092919060010191905055505050565b81548183558181151161044a57818360005260206000209182019101610449919061044f565b5b505050565b61047391905b8082111561046f5760008082016000905550600101610455565b5090565b905600a165627a7a72305820412b080e9a6f4e5d5c5a895f22fbffdc6a4119c21d825c765eb4ff6af74de1820029",
  "source": "pragma solidity ^0.4.19;\r\n\r\ncontract Cardgenerator {\r\n\r\n    //Event for new card creation\r\n    event NewCard(uint cardId, uint dna);\r\n    \r\n    //Parameters to define amount of digits, the modulus and the amount of cards in a starting deck\r\n    uint dnaDigits = 16;\r\n    uint dnaModulus = 10 ** dnaDigits;\r\n    uint startingDeck = 10;\r\n    uint cardPack = 5;\r\n    uint cardPackCost = 3;\r\n\r\n    uint public globalCardCount;\r\n\r\n    //Card characteristics\r\n    struct Card {\r\n        uint dna;\r\n    }\r\n    \r\n    //Array of all cards created\r\n    Card[] public cards;\r\n\r\n    mapping (uint => address) public cardToOwner;\r\n    mapping (address => uint ) public ownerCardCount;\r\n\r\n    //Create a new card by passing dna, assign to msg.sender and trigger New Card event\r\n    //Card id = position-1 in card array\r\n    function _createCard(uint _dna) private {\r\n        uint id = cards.push(Card(_dna)) - 1;\r\n        cardToOwner[id] = msg.sender;\r\n        ownerCardCount[msg.sender]++;\r\n        emit NewCard(id, _dna);\r\n        globalCardCount++;\r\n    }\r\n\r\n    //Generate (semi)random dna from a string using keccak256 and revert to needed amount of digits\r\n    function _generateRandomDna(uint _time, uint _nonce) private view returns (uint) {\r\n        uint hashInput = _time * _nonce;\r\n        uint rand = uint(keccak256(hashInput));\r\n        return rand % dnaModulus;\r\n    }\r\n\r\n    //Create a random card when account has no cards\r\n    //(add randomly generated name based upon cardtype)\r\n    function createRandomCard() public {\r\n        require(ownerCardCount[msg.sender] == 0);\r\n        uint _nonce = 1;\r\n        for (uint i = 0; i < startingDeck; i++) {\r\n            uint randDna = _generateRandomDna(block.timestamp, _nonce);\r\n            _createCard(randDna);\r\n            _nonce++;\r\n            }\r\n    }\r\n}",
  "sourcePath": "D:\\Users\\MBRUIJN\\Desktop\\Blockchain\\Blockchain development\\card-game\\contracts\\Cardgenerator.sol",
  "compiler": {
    "name": "solc",
    "version": "0.4.21+commit.dfe3193c.Emscripten.clang"
  },
  "schemaVersion": "2.0.0",
  "updatedAt": "2018-05-04T14:37:30.830Z"
}