{
  "contractName": "Cardgenerator",
  "abi": [
    {
      "constant": true,
      "inputs": [],
      "name": "startingDeck",
      "outputs": [
        {
          "name": "",
          "type": "uint256"
        }
      ],
      "payable": false,
      "stateMutability": "view",
      "type": "function"
    },
    {
      "constant": true,
      "inputs": [],
      "name": "cardPackSize",
      "outputs": [
        {
          "name": "",
          "type": "uint256"
        }
      ],
      "payable": false,
      "stateMutability": "view",
      "type": "function"
    },
    {
      "constant": true,
      "inputs": [
        {
          "name": "",
          "type": "address"
        }
      ],
      "name": "ownerCardCount",
      "outputs": [
        {
          "name": "",
          "type": "uint256"
        }
      ],
      "payable": false,
      "stateMutability": "view",
      "type": "function"
    },
    {
      "constant": true,
      "inputs": [],
      "name": "owner",
      "outputs": [
        {
          "name": "",
          "type": "address"
        }
      ],
      "payable": false,
      "stateMutability": "view",
      "type": "function"
    },
    {
      "constant": true,
      "inputs": [
        {
          "name": "",
          "type": "uint256"
        }
      ],
      "name": "cards",
      "outputs": [
        {
          "name": "dna",
          "type": "uint256"
        }
      ],
      "payable": false,
      "stateMutability": "view",
      "type": "function"
    },
    {
      "constant": true,
      "inputs": [],
      "name": "cardPackCost",
      "outputs": [
        {
          "name": "",
          "type": "uint256"
        }
      ],
      "payable": false,
      "stateMutability": "view",
      "type": "function"
    },
    {
      "constant": true,
      "inputs": [],
      "name": "globalCardCount",
      "outputs": [
        {
          "name": "",
          "type": "uint256"
        }
      ],
      "payable": false,
      "stateMutability": "view",
      "type": "function"
    },
    {
      "constant": false,
      "inputs": [
        {
          "name": "newOwner",
          "type": "address"
        }
      ],
      "name": "transferOwnership",
      "outputs": [],
      "payable": false,
      "stateMutability": "nonpayable",
      "type": "function"
    },
    {
      "constant": true,
      "inputs": [
        {
          "name": "",
          "type": "uint256"
        }
      ],
      "name": "cardToOwner",
      "outputs": [
        {
          "name": "",
          "type": "address"
        }
      ],
      "payable": false,
      "stateMutability": "view",
      "type": "function"
    },
    {
      "inputs": [],
      "payable": false,
      "stateMutability": "nonpayable",
      "type": "constructor"
    },
    {
      "anonymous": false,
      "inputs": [
        {
          "indexed": false,
          "name": "cardId",
          "type": "uint256"
        },
        {
          "indexed": false,
          "name": "dna",
          "type": "uint256"
        }
      ],
      "name": "NewCard",
      "type": "event"
    },
    {
      "anonymous": false,
      "inputs": [
        {
          "indexed": true,
          "name": "previousOwner",
          "type": "address"
        },
        {
          "indexed": true,
          "name": "newOwner",
          "type": "address"
        }
      ],
      "name": "OwnershipTransferred",
      "type": "event"
    },
    {
      "constant": false,
      "inputs": [],
      "name": "createStartingDeck",
      "outputs": [],
      "payable": false,
      "stateMutability": "nonpayable",
      "type": "function"
    },
    {
      "constant": false,
      "inputs": [
        {
          "name": "_amount",
          "type": "uint256"
        }
      ],
      "name": "buyCardPacks",
      "outputs": [],
      "payable": true,
      "stateMutability": "payable",
      "type": "function"
    },
    {
      "constant": false,
      "inputs": [
        {
          "name": "_price",
          "type": "uint256"
        }
      ],
      "name": "setCardPackPrice",
      "outputs": [],
      "payable": false,
      "stateMutability": "nonpayable",
      "type": "function"
    },
    {
      "constant": true,
      "inputs": [],
      "name": "getBalance",
      "outputs": [
        {
          "name": "",
          "type": "uint256"
        }
      ],
      "payable": false,
      "stateMutability": "view",
      "type": "function"
    },
    {
      "constant": false,
      "inputs": [],
      "name": "withdrawFunds",
      "outputs": [],
      "payable": false,
      "stateMutability": "nonpayable",
      "type": "function"
    }
  ],
  "bytecode": "0x60606040526010600255600254600a0a600355600a60045560058055341561002657600080fd5b336000806101000a81548173ffffffffffffffffffffffffffffffffffffffff021916908373ffffffffffffffffffffffffffffffffffffffff1602179055506729a2241af62c000060068190555033600160006101000a81548173ffffffffffffffffffffffffffffffffffffffff021916908373ffffffffffffffffffffffffffffffffffffffff1602179055506109c0806100c56000396000f3006060604052600436106100d0576000357c0100000000000000000000000000000000000000000000000000000000900463ffffffff16806312065fe0146100d557806324600fc3146100fe578063715e997614610113578063767138e21461013c578063804c4b25146101655780638da5cb5b146101b25780638dc10768146102075780638e6dbe361461023e5780639cbfed1214610267578063a23f5a761461027f578063a904125f14610294578063b120e01f146102b7578063f2fde38b146102e0578063ffb976ec14610319575b600080fd5b34156100e057600080fd5b6100e861037c565b6040518082815260200191505060405180910390f35b341561010957600080fd5b61011161039b565b005b341561011e57600080fd5b610126610467565b6040518082815260200191505060405180910390f35b341561014757600080fd5b61014f61046d565b6040518082815260200191505060405180910390f35b341561017057600080fd5b61019c600480803573ffffffffffffffffffffffffffffffffffffffff16906020019091905050610473565b6040518082815260200191505060405180910390f35b34156101bd57600080fd5b6101c561048b565b604051808273ffffffffffffffffffffffffffffffffffffffff1673ffffffffffffffffffffffffffffffffffffffff16815260200191505060405180910390f35b341561021257600080fd5b61022860048080359060200190919050506104b1565b6040518082815260200191505060405180910390f35b341561024957600080fd5b6102516104db565b6040518082815260200191505060405180910390f35b61027d60048080359060200190919050506104e1565b005b341561028a57600080fd5b61029261053d565b005b341561029f57600080fd5b6102b560048080359060200190919050506105d1565b005b34156102c257600080fd5b6102ca610636565b6040518082815260200191505060405180910390f35b34156102eb57600080fd5b610317600480803573ffffffffffffffffffffffffffffffffffffffff1690602001909190505061063c565b005b341561032457600080fd5b61033a6004808035906020019091905050610791565b604051808273ffffffffffffffffffffffffffffffffffffffff1673ffffffffffffffffffffffffffffffffffffffff16815260200191505060405180910390f35b60003073ffffffffffffffffffffffffffffffffffffffff1631905090565b60008060009054906101000a900473ffffffffffffffffffffffffffffffffffffffff1673ffffffffffffffffffffffffffffffffffffffff163373ffffffffffffffffffffffffffffffffffffffff161415156103f857600080fd5b61040061037c565b9050600160009054906101000a900473ffffffffffffffffffffffffffffffffffffffff1673ffffffffffffffffffffffffffffffffffffffff166108fc829081150290604051600060405180830381858888f19350505050151561046457600080fd5b50565b60045481565b60055481565b600a6020528060005260406000206000915090505481565b600160009054906101000a900473ffffffffffffffffffffffffffffffffffffffff1681565b6008818154811015156104c057fe5b90600052602060002090016000915090508060000154905081565b60065481565b60008060008360065402341415156104f857600080fd5b60019250600091505b83600554028210156105375761051742846107c4565b905061052281610802565b82806001019350508180600101925050610501565b50505050565b600080600080600a60003373ffffffffffffffffffffffffffffffffffffffff1673ffffffffffffffffffffffffffffffffffffffff1681526020019081526020016000205414151561058f57600080fd5b60019250600091505b6004548210156105cc576105ac42846107c4565b90506105b781610802565b82806001019350508180600101925050610598565b505050565b6000809054906101000a900473ffffffffffffffffffffffffffffffffffffffff1673ffffffffffffffffffffffffffffffffffffffff163373ffffffffffffffffffffffffffffffffffffffff1614151561062c57600080fd5b8060068190555050565b60075481565b6000809054906101000a900473ffffffffffffffffffffffffffffffffffffffff1673ffffffffffffffffffffffffffffffffffffffff163373ffffffffffffffffffffffffffffffffffffffff1614151561069757600080fd5b600073ffffffffffffffffffffffffffffffffffffffff168173ffffffffffffffffffffffffffffffffffffffff16141515156106d357600080fd5b8073ffffffffffffffffffffffffffffffffffffffff166000809054906101000a900473ffffffffffffffffffffffffffffffffffffffff1673ffffffffffffffffffffffffffffffffffffffff167f8be0079c531659141344cd1fd0a4f28419497f9722a3daafe3b4186f6b6457e060405160405180910390a3806000806101000a81548173ffffffffffffffffffffffffffffffffffffffff021916908373ffffffffffffffffffffffffffffffffffffffff16021790555050565b60096020528060005260406000206000915054906101000a900473ffffffffffffffffffffffffffffffffffffffff1681565b6000806000838502915081604051808281526020019150506040518091039020600190049050600354818115156107f757fe5b069250505092915050565b600060016008805480600101828161081a9190610941565b91600052602060002090016000602060405190810160405280878152509091909150600082015181600001555050039050336009600083815260200190815260200160002060006101000a81548173ffffffffffffffffffffffffffffffffffffffff021916908373ffffffffffffffffffffffffffffffffffffffff160217905550600a60003373ffffffffffffffffffffffffffffffffffffffff1673ffffffffffffffffffffffffffffffffffffffff168152602001908152602001600020600081548092919060010191905055507fcf8e4e7c2fdf9e4b6dd5b064faecd0635e5c3c579db2d4addecaefa6eb59a7dd8183604051808381526020018281526020019250505060405180910390a16007600081548092919060010191905055505050565b81548183558181151161096857818360005260206000209182019101610967919061096d565b5b505050565b61099191905b8082111561098d5760008082016000905550600101610973565b5090565b905600a165627a7a7230582055e9ad1906c6db5cede505b5d976281e27775f419ee2d05b86e269d638aab2030029",
  "source": "pragma solidity ^0.4.19;\r\n\r\nimport \"./ownable.sol\";\r\n\r\ncontract Cardgenerator is Ownable {\r\n\r\n    //Event for new card creation\r\n    event NewCard(uint cardId, uint dna);\r\n    \r\n    //Parameters to define amount of digits, the modulus and the amount of cards in a starting deck\r\n    address public owner;\r\n    uint dnaDigits = 16;\r\n    uint dnaModulus = 10 ** dnaDigits;\r\n    uint public startingDeck = 10;\r\n    uint public cardPackSize = 5;\r\n    uint public cardPackCost;\r\n\r\n    uint public globalCardCount;\r\n\r\n    //Card characteristics\r\n    struct Card {\r\n        uint dna;\r\n    }\r\n    \r\n    //Array of all cards created\r\n    Card[] public cards;\r\n\r\n    mapping (uint => address) public cardToOwner;\r\n    mapping (address => uint ) public ownerCardCount;\r\n\r\n    //Constructor for setting initial card pack price\r\n    function Cardgenerator() public {\r\n        cardPackCost = 3 ether;\r\n        owner = msg.sender;\r\n    }\r\n\r\n    //Create a new card by passing dna, assign to msg.sender and trigger New Card event\r\n    //Card id = position-1 in card array\r\n    function _createCard(uint _dna) private {\r\n        uint id = cards.push(Card(_dna)) - 1;\r\n        cardToOwner[id] = msg.sender;\r\n        ownerCardCount[msg.sender]++;\r\n        emit NewCard(id, _dna);\r\n        globalCardCount++;\r\n    }\r\n\r\n    //Generate (semi)random dna from a string using keccak256 and revert to needed amount of digits\r\n    function _generateRandomDna(uint _time, uint _nonce) private view returns (uint) {\r\n        uint hashInput = _time * _nonce;\r\n        uint rand = uint(keccak256(hashInput));\r\n        return rand % dnaModulus;\r\n    }\r\n\r\n    //Create a random card when account has no cards\r\n    //(add randomly generated name based upon cardtype)\r\n    function createStartingDeck() public {\r\n        require(ownerCardCount[msg.sender] == 0);\r\n        uint _nonce = 1;\r\n        for (uint i = 0; i < startingDeck; i++) {\r\n            uint randDna = _generateRandomDna(block.timestamp, _nonce);\r\n            _createCard(randDna);\r\n            _nonce++;\r\n            }\r\n    }\r\n    \r\n    //Buy cardpacks. Takes (cardPackCost * _amount) in ETH.\r\n    //Generates (cardPackSize * _amount) amount of cards\r\n    function buyCardPacks(uint _amount) public payable {\r\n        require(msg.value == (cardPackCost * _amount));\r\n        uint _nonce = 1;\r\n        for (uint i = 0; i < (cardPackSize * _amount); i++) {\r\n            uint randDna = _generateRandomDna(block.timestamp, _nonce);\r\n            _createCard(randDna);\r\n            _nonce++;\r\n            }        \r\n    } \r\n\r\n    //Set cardPackCost. Takes a uint.\r\n    function setCardPackPrice(uint _price) public onlyOwner {\r\n        cardPackCost = _price;\r\n    }    \r\n    \r\n    //Get the accountbalance of the smart contract\r\n    function getBalance() public view returns (uint) {\r\n        return address(this).balance;\r\n    }\r\n\r\n    //Withdrawal function to send the entire balance to the owner\r\n    function withdrawFunds() public onlyOwner {\r\n        uint contractBalance;\r\n        contractBalance = getBalance();\r\n        address(owner).transfer(contractBalance);\r\n    }\r\n}",
  "sourcePath": "D:\\Users\\MBRUIJN\\Desktop\\Blockchain\\Blockchain development\\card-game\\contracts\\Cardgenerator.sol",
  "compiler": {
    "name": "solc",
    "version": "0.4.21+commit.dfe3193c.Emscripten.clang"
  },
  "schemaVersion": "2.0.0",
  "updatedAt": "2018-05-18T13:46:59.011Z"
}